{
  "_format": "hh3-artifact-1",
  "contractName": "CreditTrustToken",
  "sourceName": "contracts/CreditTrustToken.sol",
  "abi": [
    {
      "inputs": [
        {
          "internalType": "address",
          "name": "_admin",
          "type": "address"
        }
      ],
      "stateMutability": "nonpayable",
      "type": "constructor"
    },
    {
      "anonymous": false,
      "inputs": [
        {
          "indexed": true,
          "internalType": "address",
          "name": "user",
          "type": "address"
        },
        {
          "indexed": false,
          "internalType": "uint256",
          "name": "amount",
          "type": "uint256"
        },
        {
          "indexed": false,
          "internalType": "int256",
          "name": "newBalance",
          "type": "int256"
        }
      ],
      "name": "Burned",
      "type": "event"
    },
    {
      "anonymous": false,
      "inputs": [
        {
          "indexed": true,
          "internalType": "address",
          "name": "user",
          "type": "address"
        },
        {
          "indexed": false,
          "internalType": "uint256",
          "name": "amount",
          "type": "uint256"
        },
        {
          "indexed": false,
          "internalType": "int256",
          "name": "newBalance",
          "type": "int256"
        }
      ],
      "name": "Minted",
      "type": "event"
    },
    {
      "anonymous": false,
      "inputs": [
        {
          "indexed": true,
          "internalType": "address",
          "name": "user",
          "type": "address"
        },
        {
          "indexed": false,
          "internalType": "int256",
          "name": "initialTrustScore",
          "type": "int256"
        }
      ],
      "name": "UserInitialized",
      "type": "event"
    },
    {
      "inputs": [],
      "name": "admin",
      "outputs": [
        {
          "internalType": "address",
          "name": "",
          "type": "address"
        }
      ],
      "stateMutability": "view",
      "type": "function"
    },
    {
      "inputs": [
        {
          "internalType": "address",
          "name": "user",
          "type": "address"
        },
        {
          "internalType": "uint256",
          "name": "amount",
          "type": "uint256"
        }
      ],
      "name": "burn",
      "outputs": [],
      "stateMutability": "nonpayable",
      "type": "function"
    },
    {
      "inputs": [
        {
          "internalType": "address",
          "name": "user",
          "type": "address"
        },
        {
          "internalType": "uint256",
          "name": "initialTrustScore",
          "type": "uint256"
        }
      ],
      "name": "initializeUser",
      "outputs": [],
      "stateMutability": "nonpayable",
      "type": "function"
    },
    {
      "inputs": [
        {
          "internalType": "address",
          "name": "",
          "type": "address"
        }
      ],
      "name": "isInitialized",
      "outputs": [
        {
          "internalType": "bool",
          "name": "",
          "type": "bool"
        }
      ],
      "stateMutability": "view",
      "type": "function"
    },
    {
      "inputs": [
        {
          "internalType": "address",
          "name": "user",
          "type": "address"
        },
        {
          "internalType": "uint256",
          "name": "amount",
          "type": "uint256"
        }
      ],
      "name": "mint",
      "outputs": [],
      "stateMutability": "nonpayable",
      "type": "function"
    },
    {
      "inputs": [
        {
          "internalType": "address",
          "name": "newAdmin",
          "type": "address"
        }
      ],
      "name": "setAdmin",
      "outputs": [],
      "stateMutability": "nonpayable",
      "type": "function"
    },
    {
      "inputs": [
        {
          "internalType": "address",
          "name": "",
          "type": "address"
        }
      ],
      "name": "tokenBalance",
      "outputs": [
        {
          "internalType": "int256",
          "name": "",
          "type": "int256"
        }
      ],
      "stateMutability": "view",
      "type": "function"
    }
  ],
  "bytecode": "0x6080604052348015600e575f5ffd5b5060405161083b38038061083b833981016040819052602b9160a8565b6001600160a01b03811660845760405162461bcd60e51b815260206004820152601460248201527f41646d696e2063616e6e6f74206265207a65726f000000000000000000000000604482015260640160405180910390fd5b600280546001600160a01b0319166001600160a01b039290921691909117905560d3565b5f6020828403121560b7575f5ffd5b81516001600160a01b038116811460cc575f5ffd5b9392505050565b61075b806100e05f395ff3fe608060405234801561000f575f5ffd5b506004361061007a575f3560e01c8063d60b347f11610058578063d60b347f146100b9578063e6bc59ca146100f0578063eedc966a14610103578063f851a44014610130575f5ffd5b806340c10f191461007e578063704b6c02146100935780639dc29fac146100a6575b5f5ffd5b61009161008c36600461061f565b61015b565b005b6100916100a1366004610647565b6102c2565b6100916100b436600461061f565b610358565b6100db6100c7366004610647565b60016020525f908152604090205460ff1681565b60405190151581526020015b60405180910390f35b6100916100fe36600461061f565b6104ad565b610122610111366004610647565b5f6020819052908152604090205481565b6040519081526020016100e7565b600254610143906001600160a01b031681565b6040516001600160a01b0390911681526020016100e7565b6002546001600160a01b0316331461018e5760405162461bcd60e51b815260040161018590610667565b60405180910390fd5b6001600160a01b0382166101b45760405162461bcd60e51b81526004016101859061069e565b5f81116101f85760405162461bcd60e51b81526020600482015260126024820152710416d6f756e74206d757374206265203e20360741b6044820152606401610185565b6001600160ff1b038111156102425760405162461bcd60e51b815260206004820152601060248201526f416d6f756e7420746f6f206c6172676560801b6044820152606401610185565b6001600160a01b0382165f908152602081905260408120546102659083906106d8565b6001600160a01b0384165f8181526020818152604091829020849055815186815290810184905292935090917fa08d6edb5f88a0d9a6b60659504444f73ecdbeed019a77a0ec8d9d75a1268d6391015b60405180910390a2505050565b6002546001600160a01b031633146102ec5760405162461bcd60e51b815260040161018590610667565b6001600160a01b0381166103365760405162461bcd60e51b815260206004820152601160248201527024b73b30b634b2103732bb9030b236b4b760791b6044820152606401610185565b600280546001600160a01b0319166001600160a01b0392909216919091179055565b6002546001600160a01b031633146103825760405162461bcd60e51b815260040161018590610667565b6001600160a01b0382166103a85760405162461bcd60e51b81526004016101859061069e565b5f81116103ec5760405162461bcd60e51b81526020600482015260126024820152710416d6f756e74206d757374206265203e20360741b6044820152606401610185565b6001600160ff1b038111156104365760405162461bcd60e51b815260206004820152601060248201526f416d6f756e7420746f6f206c6172676560801b6044820152606401610185565b6001600160a01b0382165f908152602081905260408120546104599083906106ff565b6001600160a01b0384165f8181526020818152604091829020849055815186815290810184905292935090917f06871ec5615772fa1a8b9e55903e2ff7629a1e7340775cf8432b6b5f49b38d0b91016102b5565b6002546001600160a01b031633146104d75760405162461bcd60e51b815260040161018590610667565b6001600160a01b0382166104fd5760405162461bcd60e51b81526004016101859061069e565b6001600160a01b0382165f9081526001602052604090205460ff161561055b5760405162461bcd60e51b8152602060048201526013602482015272105b1c9958591e481a5b9a5d1a585b1a5e9959606a1b6044820152606401610185565b6001600160ff1b038111156105a45760405162461bcd60e51b815260206004820152600f60248201526e53636f726520746f6f206c6172676560881b6044820152606401610185565b6001600160a01b0382165f81815260208181526040808320859055600180835292819020805460ff191690931790925590518381528392917f913b48e3778c5d1f5be5d74351a14156230f41857c1481ac3ee1aa5993b3511791016102b5565b80356001600160a01b038116811461061a575f5ffd5b919050565b5f5f60408385031215610630575f5ffd5b61063983610604565b946020939093013593505050565b5f60208284031215610657575f5ffd5b61066082610604565b9392505050565b60208082526017908201527f556e617574686f72697a65643a206e6f742061646d696e000000000000000000604082015260600190565b6020808252600c908201526b24b73b30b634b2103ab9b2b960a11b604082015260600190565b634e487b7160e01b5f52601160045260245ffd5b8082018281125f8312801582168215821617156106f7576106f76106c4565b505092915050565b8181035f83128015838313168383128216171561071e5761071e6106c4565b509291505056fea26469706673582212205cda179e84c3ada7c28defe4d8301448e7263ddbd854b3838c3449e8da60d3ed64736f6c634300081c0033",
  "linkReferences": {},
  "deployedLinkReferences": {},
  "immutableReferences": {},
  "inputSourceName": "project/contracts/CreditTrustToken.sol",
  "buildInfoId": "solc-0_8_28-5b4e38cfb115807c1cf3ea9bf6268ee4e2d68951"
}