{
  "_format": "hh3-artifact-1",
  "contractName": "LoanSystemMVP",
  "sourceName": "contracts/LoanSystemMVP.sol",
  "abi": [
    {
      "inputs": [
        {
          "internalType": "address",
          "name": "_admin",
          "type": "address"
        },
        {
          "internalType": "address",
          "name": "_ctt",
          "type": "address"
        },
        {
          "internalType": "address",
          "name": "_FTCToken",
          "type": "address"
        }
      ],
      "stateMutability": "nonpayable",
      "type": "constructor"
    },
    {
      "anonymous": false,
      "inputs": [
        {
          "indexed": true,
          "internalType": "address",
          "name": "user",
          "type": "address"
        },
        {
          "indexed": false,
          "internalType": "uint256",
          "name": "amount",
          "type": "uint256"
        },
        {
          "indexed": false,
          "internalType": "uint256",
          "name": "mintedShares",
          "type": "uint256"
        }
      ],
      "name": "Deposited",
      "type": "event"
    },
    {
      "anonymous": false,
      "inputs": [
        {
          "indexed": true,
          "internalType": "uint256",
          "name": "id",
          "type": "uint256"
        },
        {
          "indexed": true,
          "internalType": "address",
          "name": "borrower",
          "type": "address"
        },
        {
          "indexed": false,
          "internalType": "uint256",
          "name": "principal",
          "type": "uint256"
        },
        {
          "indexed": false,
          "internalType": "uint256",
          "name": "aprBps",
          "type": "uint256"
        },
        {
          "indexed": false,
          "internalType": "uint256",
          "name": "termDays",
          "type": "uint256"
        }
      ],
      "name": "LoanCreated",
      "type": "event"
    },
    {
      "anonymous": false,
      "inputs": [
        {
          "indexed": true,
          "internalType": "uint256",
          "name": "id",
          "type": "uint256"
        },
        {
          "indexed": true,
          "internalType": "address",
          "name": "borrower",
          "type": "address"
        },
        {
          "indexed": false,
          "internalType": "uint256",
          "name": "principal",
          "type": "uint256"
        }
      ],
      "name": "LoanDefaulted",
      "type": "event"
    },
    {
      "anonymous": false,
      "inputs": [
        {
          "indexed": true,
          "internalType": "uint256",
          "name": "id",
          "type": "uint256"
        },
        {
          "indexed": true,
          "internalType": "address",
          "name": "borrower",
          "type": "address"
        },
        {
          "indexed": false,
          "internalType": "uint256",
          "name": "amount",
          "type": "uint256"
        },
        {
          "indexed": false,
          "internalType": "uint256",
          "name": "dueDate",
          "type": "uint256"
        }
      ],
      "name": "LoanDisbursed",
      "type": "event"
    },
    {
      "anonymous": false,
      "inputs": [
        {
          "indexed": true,
          "internalType": "uint256",
          "name": "id",
          "type": "uint256"
        },
        {
          "indexed": false,
          "internalType": "uint256",
          "name": "amount",
          "type": "uint256"
        }
      ],
      "name": "LoanFunded",
      "type": "event"
    },
    {
      "anonymous": false,
      "inputs": [
        {
          "indexed": true,
          "internalType": "uint256",
          "name": "id",
          "type": "uint256"
        },
        {
          "indexed": true,
          "internalType": "address",
          "name": "borrower",
          "type": "address"
        },
        {
          "indexed": false,
          "internalType": "uint256",
          "name": "principal",
          "type": "uint256"
        },
        {
          "indexed": false,
          "internalType": "uint256",
          "name": "interest",
          "type": "uint256"
        },
        {
          "indexed": false,
          "internalType": "bool",
          "name": "onTime",
          "type": "bool"
        }
      ],
      "name": "LoanRepaid",
      "type": "event"
    },
    {
      "anonymous": false,
      "inputs": [
        {
          "indexed": true,
          "internalType": "address",
          "name": "user",
          "type": "address"
        },
        {
          "indexed": false,
          "internalType": "uint256",
          "name": "amount",
          "type": "uint256"
        },
        {
          "indexed": false,
          "internalType": "uint256",
          "name": "burnedShares",
          "type": "uint256"
        }
      ],
      "name": "Withdrawn",
      "type": "event"
    },
    {
      "inputs": [],
      "name": "FTCToken",
      "outputs": [
        {
          "internalType": "contract IERC20",
          "name": "",
          "type": "address"
        }
      ],
      "stateMutability": "view",
      "type": "function"
    },
    {
      "inputs": [
        {
          "internalType": "uint256",
          "name": "principal",
          "type": "uint256"
        },
        {
          "internalType": "uint256",
          "name": "aprBps",
          "type": "uint256"
        },
        {
          "internalType": "uint256",
          "name": "termDays",
          "type": "uint256"
        }
      ],
      "name": "_calcInterest",
      "outputs": [
        {
          "internalType": "uint256",
          "name": "",
          "type": "uint256"
        }
      ],
      "stateMutability": "pure",
      "type": "function"
    },
    {
      "inputs": [],
      "name": "admin",
      "outputs": [
        {
          "internalType": "address",
          "name": "",
          "type": "address"
        }
      ],
      "stateMutability": "view",
      "type": "function"
    },
    {
      "inputs": [
        {
          "internalType": "address payable",
          "name": "borrower",
          "type": "address"
        },
        {
          "internalType": "uint256",
          "name": "amount",
          "type": "uint256"
        },
        {
          "internalType": "uint256",
          "name": "aprBps",
          "type": "uint256"
        },
        {
          "internalType": "uint256",
          "name": "termDays",
          "type": "uint256"
        }
      ],
      "name": "createLoan",
      "outputs": [
        {
          "internalType": "uint256",
          "name": "id",
          "type": "uint256"
        }
      ],
      "stateMutability": "nonpayable",
      "type": "function"
    },
    {
      "inputs": [],
      "name": "ctt",
      "outputs": [
        {
          "internalType": "contract ICreditTrustToken",
          "name": "",
          "type": "address"
        }
      ],
      "stateMutability": "view",
      "type": "function"
    },
    {
      "inputs": [],
      "name": "deposit",
      "outputs": [],
      "stateMutability": "payable",
      "type": "function"
    },
    {
      "inputs": [
        {
          "internalType": "uint256",
          "name": "amount",
          "type": "uint256"
        }
      ],
      "name": "depositFTCT",
      "outputs": [],
      "stateMutability": "nonpayable",
      "type": "function"
    },
    {
      "inputs": [
        {
          "internalType": "uint256",
          "name": "",
          "type": "uint256"
        }
      ],
      "name": "loans",
      "outputs": [
        {
          "internalType": "address payable",
          "name": "borrower",
          "type": "address"
        },
        {
          "internalType": "uint256",
          "name": "principal",
          "type": "uint256"
        },
        {
          "internalType": "uint256",
          "name": "aprBps",
          "type": "uint256"
        },
        {
          "internalType": "uint256",
          "name": "termDays",
          "type": "uint256"
        },
        {
          "internalType": "enum LoanSystemMVP.State",
          "name": "state",
          "type": "uint8"
        },
        {
          "internalType": "uint256",
          "name": "escrowBalance",
          "type": "uint256"
        },
        {
          "internalType": "uint256",
          "name": "dueDate",
          "type": "uint256"
        }
      ],
      "stateMutability": "view",
      "type": "function"
    },
    {
      "inputs": [
        {
          "internalType": "uint256",
          "name": "id",
          "type": "uint256"
        }
      ],
      "name": "markDefaulted",
      "outputs": [],
      "stateMutability": "nonpayable",
      "type": "function"
    },
    {
      "inputs": [
        {
          "internalType": "uint256",
          "name": "id",
          "type": "uint256"
        }
      ],
      "name": "markDisbursed",
      "outputs": [],
      "stateMutability": "nonpayable",
      "type": "function"
    },
    {
      "inputs": [
        {
          "internalType": "uint256",
          "name": "id",
          "type": "uint256"
        }
      ],
      "name": "markDisbursedFTCT",
      "outputs": [],
      "stateMutability": "nonpayable",
      "type": "function"
    },
    {
      "inputs": [
        {
          "internalType": "uint256",
          "name": "id",
          "type": "uint256"
        }
      ],
      "name": "markFunded",
      "outputs": [],
      "stateMutability": "nonpayable",
      "type": "function"
    },
    {
      "inputs": [
        {
          "internalType": "uint256",
          "name": "id",
          "type": "uint256"
        },
        {
          "internalType": "bool",
          "name": "onTime",
          "type": "bool"
        }
      ],
      "name": "markRepaid",
      "outputs": [],
      "stateMutability": "payable",
      "type": "function"
    },
    {
      "inputs": [
        {
          "internalType": "uint256",
          "name": "id",
          "type": "uint256"
        },
        {
          "internalType": "bool",
          "name": "onTime",
          "type": "bool"
        },
        {
          "internalType": "uint256",
          "name": "amount",
          "type": "uint256"
        }
      ],
      "name": "markRepaidFTCT",
      "outputs": [],
      "stateMutability": "nonpayable",
      "type": "function"
    },
    {
      "inputs": [],
      "name": "nextId",
      "outputs": [
        {
          "internalType": "uint256",
          "name": "",
          "type": "uint256"
        }
      ],
      "stateMutability": "view",
      "type": "function"
    },
    {
      "inputs": [
        {
          "internalType": "address",
          "name": "newAdmin",
          "type": "address"
        }
      ],
      "name": "setAdmin",
      "outputs": [],
      "stateMutability": "nonpayable",
      "type": "function"
    },
    {
      "inputs": [
        {
          "internalType": "address",
          "name": "",
          "type": "address"
        }
      ],
      "name": "sharesOf",
      "outputs": [
        {
          "internalType": "uint256",
          "name": "",
          "type": "uint256"
        }
      ],
      "stateMutability": "view",
      "type": "function"
    },
    {
      "inputs": [],
      "name": "totalPool",
      "outputs": [
        {
          "internalType": "uint256",
          "name": "",
          "type": "uint256"
        }
      ],
      "stateMutability": "view",
      "type": "function"
    },
    {
      "inputs": [],
      "name": "totalShares",
      "outputs": [
        {
          "internalType": "uint256",
          "name": "",
          "type": "uint256"
        }
      ],
      "stateMutability": "view",
      "type": "function"
    },
    {
      "inputs": [
        {
          "internalType": "uint256",
          "name": "shareAmount",
          "type": "uint256"
        }
      ],
      "name": "withdraw",
      "outputs": [],
      "stateMutability": "nonpayable",
      "type": "function"
    },
    {
      "inputs": [
        {
          "internalType": "uint256",
          "name": "shareAmount",
          "type": "uint256"
        }
      ],
      "name": "withdrawFTCT",
      "outputs": [],
      "stateMutability": "nonpayable",
      "type": "function"
    },
    {
      "stateMutability": "payable",
      "type": "receive"
    }
  ],
  "bytecode": "0x608060405234801561000f575f5ffd5b50604051611f52380380611f5283398101604081905261002e91610165565b6001600160a01b0383166100795760405162461bcd60e51b815260206004820152600d60248201526c24b73b30b634b21030b236b4b760991b60448201526064015b60405180910390fd5b6001600160a01b0382166100bd5760405162461bcd60e51b815260206004820152600b60248201526a125b9d985b1a590810d51560aa1b6044820152606401610070565b6001600160a01b0381166101065760405162461bcd60e51b815260206004820152601060248201526f24b73b30b634b210232a21aa37b5b2b760811b6044820152606401610070565b5f80546001600160a01b039485166001600160a01b0319918216179091556001805493851693821693909317835560058054929094169116179091556006556101a5565b80516001600160a01b0381168114610160575f5ffd5b919050565b5f5f5f60608486031215610177575f5ffd5b6101808461014a565b925061018e6020850161014a565b915061019c6040850161014a565b90509250925092565b611da0806101b25f395ff3fe608060405260043610610129575f3560e01c80639e8101c6116100a8578063d0e30db01161006d578063d0e30db014610329578063e1ec3c6814610331578063ecfb49a3146103a8578063f29f0e53146103bd578063f5eb42dc146103dc578063f851a44014610407575f5ffd5b80639e8101c61461028e578063b331d118146102ad578063c2f006eb146102cc578063c5666eb2146102eb578063cc4d49711461030a575f5ffd5b806361b8ce8c116100ee57806361b8ce8c14610209578063704b6c021461021e578063732164501461023d5780638cf19d931461025c5780639489756a1461027b575f5ffd5b806312af53ee1461014b5780632e1a7d4d146101875780633a98ef39146101a85780634ec10b57146101cb5780635368ec5c146101ea575f5ffd5b36610147573460025f82825461013f9190611ae3565b925050819055005b5f5ffd5b348015610156575f5ffd5b5060055461016a906001600160a01b031681565b6040516001600160a01b0390911681526020015b60405180910390f35b348015610192575f5ffd5b506101a66101a1366004611afc565b610425565b005b3480156101b3575f5ffd5b506101bd60035481565b60405190815260200161017e565b3480156101d6575f5ffd5b506101a66101e5366004611afc565b61064e565b3480156101f5575f5ffd5b506101a6610204366004611afc565b610854565b348015610214575f5ffd5b506101bd60065481565b348015610229575f5ffd5b506101a6610238366004611b2a565b610a98565b348015610248575f5ffd5b506101a6610257366004611afc565b610b28565b348015610267575f5ffd5b506101a6610276366004611afc565b610c57565b6101a6610289366004611b59565b610e1d565b348015610299575f5ffd5b506101bd6102a8366004611b87565b611090565b3480156102b8575f5ffd5b5060015461016a906001600160a01b031681565b3480156102d7575f5ffd5b506101a66102e6366004611afc565b6113ea565b3480156102f6575f5ffd5b506101a6610305366004611afc565b6115d7565b348015610315575f5ffd5b506101a6610324366004611bbf565b61170c565b6101a6611995565b34801561033c575f5ffd5b5061039561034b366004611afc565b60076020525f908152604090208054600182015460028301546003840154600485015460058601546006909601546001600160a01b039095169593949293919260ff909116919087565b60405161017e9796959493929190611c08565b3480156103b3575f5ffd5b506101bd60025481565b3480156103c8575f5ffd5b506101bd6103d7366004611c67565b611aa3565b3480156103e7575f5ffd5b506101bd6103f6366004611b2a565b60046020525f908152604090205481565b348015610412575f5ffd5b505f5461016a906001600160a01b031681565b5f81116104735760405162461bcd60e51b815260206004820152601760248201527607368617265416d6f756e74206d757374206265203e203604c1b60448201526064015b60405180910390fd5b335f908152600460205260409020548111156104c75760405162461bcd60e51b8152602060048201526013602482015272496e73756666696369656e742073686172657360681b604482015260640161046a565b5f600354116105045760405162461bcd60e51b81526020600482015260096024820152684e6f2073686172657360b81b604482015260640161046a565b5f600354600254836105169190611c90565b6105209190611ca7565b335f90815260046020526040812080549293508492909190610543908490611cc6565b925050819055508160035f82825461055b9190611cc6565b925050819055508060025f8282546105739190611cc6565b90915550506040515f90339083908381818185875af1925050503d805f81146105b7576040519150601f19603f3d011682016040523d82523d5f602084013e6105bc565b606091505b505090508061060d5760405162461bcd60e51b815260206004820152601860248201527f5769746864726177207472616e73666572206661696c65640000000000000000604482015260640161046a565b604080518381526020810185905233917f92ccf450a286a957af52509bc1c9939d1a6a481783e142e41e2499f0bb66ebc691015b60405180910390a2505050565b5f546001600160a01b031633146106775760405162461bcd60e51b815260040161046a90611cd9565b5f818152600760205260409020600160048083015460ff169081111561069f5761069f611bf4565b146106bc5760405162461bcd60e51b815260040161046a90611d10565b80600101548160050154146107055760405162461bcd60e51b815260206004820152600f60248201526e08ae6c6e4deee40dad2e6dac2e8c6d608b1b604482015260640161046a565b60048101805460ff1916600217905560038101546107269062015180611c90565b6107309042611ae3565b600682015560018101545f60058084019190915554825460405163a9059cbb60e01b81526001600160a01b0391821660048201526024810184905291169063a9059cbb906044016020604051808303815f875af1158015610793573d5f5f3e3d5ffd5b505050506040513d601f19601f820116820180604052508101906107b79190611d37565b6107fb5760405162461bcd60e51b8152602060048201526015602482015274151bdad95b881d1c985b9cd9995c8819985a5b1959605a1b604482015260640161046a565b815460068301546040516001600160a01b039092169185917fa17f99bd4547aa4c1ccc3829b6f6b53285043ac310a536743995ea2ae594520f9161084791868252602082015260400190565b60405180910390a3505050565b5f811161089d5760405162461bcd60e51b815260206004820152601760248201527607368617265416d6f756e74206d757374206265203e203604c1b604482015260640161046a565b335f908152600460205260409020548111156108f15760405162461bcd60e51b8152602060048201526013602482015272496e73756666696369656e742073686172657360681b604482015260640161046a565b5f6003541161092e5760405162461bcd60e51b81526020600482015260096024820152684e6f2073686172657360b81b604482015260640161046a565b5f600354600254836109409190611c90565b61094a9190611ca7565b335f9081526004602052604081208054929350849290919061096d908490611cc6565b925050819055508160035f8282546109859190611cc6565b925050819055508060025f82825461099d9190611cc6565b909155505060055460405163a9059cbb60e01b8152336004820152602481018390526001600160a01b039091169063a9059cbb906044016020604051808303815f875af11580156109f0573d5f5f3e3d5ffd5b505050506040513d601f19601f82011682018060405250810190610a149190611d37565b610a585760405162461bcd60e51b8152602060048201526015602482015274151bdad95b881d1c985b9cd9995c8819985a5b1959605a1b604482015260640161046a565b604080518281526020810184905233917f92ccf450a286a957af52509bc1c9939d1a6a481783e142e41e2499f0bb66ebc691015b60405180910390a25050565b5f546001600160a01b03163314610ac15760405162461bcd60e51b815260040161046a90611cd9565b6001600160a01b038116610b075760405162461bcd60e51b815260206004820152600d60248201526c24b73b30b634b21030b236b4b760991b604482015260640161046a565b5f80546001600160a01b0319166001600160a01b0392909216919091179055565b5f546001600160a01b03163314610b515760405162461bcd60e51b815260040161046a90611cd9565b5f818152600760205260409020600260048083015460ff1690811115610b7957610b79611bf4565b14610b965760405162461bcd60e51b815260040161046a90611d10565b6004818101805460ff19168217905560018054835491840154604051632770a7eb60e21b81526001600160a01b039384169481019490945260248401521690639dc29fac906044015f604051808303815f87803b158015610bf5575f5ffd5b505af1158015610c07573d5f5f3e3d5ffd5b5050825460018401546040519081526001600160a01b0390911692508491507f2d6de712d035bfecc1593860af7eae0831e978cab3cd96f778478b1fdc443bc39060200160405180910390a35050565b5f8111610c9c5760405162461bcd60e51b815260206004820152601360248201527204465706f736974206d757374206265203e203606c1b604482015260640161046a565b6005546040516323b872dd60e01b8152336004820152306024820152604481018390525f916001600160a01b0316906323b872dd906064016020604051808303815f875af1158015610cf0573d5f5f3e3d5ffd5b505050506040513d601f19601f82011682018060405250810190610d149190611d37565b905080610d5a5760405162461bcd60e51b8152602060048201526014602482015273119510d5081d1c985b9cd9995c8819985a5b195960621b604482015260640161046a565b5f6003545f1480610d6b5750600254155b15610d77575081610d94565b600254600354610d879085611c90565b610d919190611ca7565b90505b8260025f828254610da59190611ae3565b925050819055508060035f828254610dbd9190611ae3565b9091555050335f9081526004602052604081208054839290610de0908490611ae3565b9091555050604080518481526020810183905233917f73a19dd210f1a7f902193214c0ee91dd35ee5b4d920cba8d519eca65a7b488ca9101610641565b5f828152600760205260409020600260048083015460ff1690811115610e4557610e45611bf4565b14610e625760405162461bcd60e51b815260040161046a90611d10565b5f610e7a826001015483600201548460030154611aa3565b90505f818360010154610e8d9190611ae3565b905080341015610ed85760405162461bcd60e51b8152602060048201526016602482015275125b9cdd59999a58da595b9d081c995c185e5b595b9d60521b604482015260640161046a565b60048301805460ff19166003179055600280548291905f90610efb908490611ae3565b909155505f9050610f0c8234611cc6565b90508015610fa2576040515f90339083908381818185875af1925050503d805f8114610f53576040519150601f19603f3d011682016040523d82523d5f602084013e610f58565b606091505b5050905080610fa05760405162461bcd60e51b8152602060048201526014602482015273115e18d95cdcc81c99599d5b990819985a5b195960621b604482015260640161046a565b505b5f85610fbe5760028560010154610fb99190611ca7565b610fc4565b84600101545b9050801561102f5760015485546040516340c10f1960e01b81526001600160a01b039182166004820152602481018490529116906340c10f19906044015f604051808303815f87803b158015611018575f5ffd5b505af115801561102a573d5f5f3e3d5ffd5b505050505b845460018601546040805191825260208201879052881515908201526001600160a01b039091169088907fa938dfea3e0ebb989a54908e5607e5e6a921af187f6b76d1b31f9117372e4327906060015b60405180910390a350505050505050565b5f80546001600160a01b031633146110ba5760405162461bcd60e51b815260040161046a90611cd9565b6001600160a01b0385166111035760405162461bcd60e51b815260206004820152601060248201526f24b73b30b634b2103137b93937bbb2b960811b604482015260640161046a565b5f84116111475760405162461bcd60e51b81526020600482015260126024820152710416d6f756e74206d757374206265203e20360741b604482015260640161046a565b5f831161118b5760405162461bcd60e51b81526020600482015260126024820152710617072427073206d757374206265203e20360741b604482015260640161046a565b5f82116111d15760405162461bcd60e51b815260206004820152601460248201527307465726d44617973206d757374206265203e20360641b604482015260640161046a565b60068054905f6111e083611d52565b9190505590506040518060e00160405280866001600160a01b031681526020018581526020018481526020018381526020015f600481111561122457611224611bf4565b81525f602080830182905260409283018290528482526007815290829020835181546001600160a01b0319166001600160a01b03909116178155908301516001808301919091559183015160028201556060830151600382015560808301516004808301805493949293909260ff199091169184908111156112a8576112a8611bf4565b021790555060a0820151600582015560c09091015160069091015560015460405163d60b347f60e01b81526001600160a01b0387811660048301529091169063d60b347f90602401602060405180830381865afa15801561130b573d5f5f3e3d5ffd5b505050506040513d601f19601f8201168201806040525081019061132f9190611d37565b6113945760015460405163735e2ce560e11b81526001600160a01b0387811660048301525f60248301529091169063e6bc59ca906044015f604051808303815f87803b15801561137d575f5ffd5b505af115801561138f573d5f5f3e3d5ffd5b505050505b60408051858152602081018590529081018390526001600160a01b0386169082907fb2cca1719ad611d325136b9c9a4357f412d33694d93c60d4c1b6e922d524cf599060600160405180910390a3949350505050565b5f546001600160a01b031633146114135760405162461bcd60e51b815260040161046a90611cd9565b5f818152600760205260409020600160048083015460ff169081111561143b5761143b611bf4565b146114585760405162461bcd60e51b815260040161046a90611d10565b80600101548160050154146114a15760405162461bcd60e51b815260206004820152600f60248201526e08ae6c6e4deee40dad2e6dac2e8c6d608b1b604482015260640161046a565b60048101805460ff1916600217905560038101546114c29062015180611c90565b6114cc9042611ae3565b600682015560018101545f6005830181905582546040516001600160a01b039091169083908381818185875af1925050503d805f8114611527576040519150601f19603f3d011682016040523d82523d5f602084013e61152c565b606091505b505090508061157d5760405162461bcd60e51b815260206004820152601860248201527f426f72726f776572207472616e73666572206661696c65640000000000000000604482015260640161046a565b825460068401546040516001600160a01b039092169186917fa17f99bd4547aa4c1ccc3829b6f6b53285043ac310a536743995ea2ae594520f916115c991878252602082015260400190565b60405180910390a350505050565b5f546001600160a01b031633146116005760405162461bcd60e51b815260040161046a90611cd9565b5f8181526007602052604081209060048083015460ff169081111561162757611627611bf4565b146116445760405162461bcd60e51b815260040161046a90611d10565b8060010154600254101561168e5760405162461bcd60e51b8152602060048201526011602482015270125b9cdd59999a58da595b9d081c1bdbdb607a1b604482015260640161046a565b8060010154816005015f8282546116a59190611ae3565b90915550506001810154600280545f906116c0908490611cc6565b909155505060048101805460ff1916600190811790915581015460405190815282907fea9cce54fc29194e0a726c8d4d5462633f965462664714b80ce5c52d3f94b96090602001610a8c565b5f838152600760205260409020600260048083015460ff169081111561173457611734611bf4565b146117515760405162461bcd60e51b815260040161046a90611d10565b5f611769826001015483600201548460030154611aa3565b90505f81836001015461177c9190611ae3565b9050808410156117c75760405162461bcd60e51b8152602060048201526016602482015275125b9cdd59999a58da595b9d081c995c185e5b595b9d60521b604482015260640161046a565b6005546040516323b872dd60e01b8152336004820152306024820152604481018390526001600160a01b03909116906323b872dd906064016020604051808303815f875af115801561181b573d5f5f3e3d5ffd5b505050506040513d601f19601f8201168201806040525081019061183f9190611d37565b61188b5760405162461bcd60e51b815260206004820152601960248201527f52657061796d656e74207472616e73666572206661696c656400000000000000604482015260640161046a565b60048301805460ff19166003179055600280548291905f906118ae908490611ae3565b909155505f9050856118d057600284600101546118cb9190611ca7565b6118d6565b83600101545b905080156119415760015484546040516340c10f1960e01b81526001600160a01b039182166004820152602481018490529116906340c10f19906044015f604051808303815f87803b15801561192a575f5ffd5b505af115801561193c573d5f5f3e3d5ffd5b505050505b835460018501546040805191825260208201869052881515908201526001600160a01b039091169088907fa938dfea3e0ebb989a54908e5607e5e6a921af187f6b76d1b31f9117372e43279060600161107f565b5f34116119da5760405162461bcd60e51b815260206004820152601360248201527204465706f736974206d757374206265203e203606c1b604482015260640161046a565b5f6003545f14806119eb5750600254155b156119f7575034611a14565b600254600354611a079034611c90565b611a119190611ca7565b90505b3460025f828254611a259190611ae3565b925050819055508060035f828254611a3d9190611ae3565b9091555050335f9081526004602052604081208054839290611a60908490611ae3565b9091555050604080513481526020810183905233917f73a19dd210f1a7f902193214c0ee91dd35ee5b4d920cba8d519eca65a7b488ca910160405180910390a250565b5f6237b1d082611ab38587611c90565b611abd9190611c90565b611ac79190611ca7565b949350505050565b634e487b7160e01b5f52601160045260245ffd5b80820180821115611af657611af6611acf565b92915050565b5f60208284031215611b0c575f5ffd5b5035919050565b6001600160a01b0381168114611b27575f5ffd5b50565b5f60208284031215611b3a575f5ffd5b8135611b4581611b13565b9392505050565b8015158114611b27575f5ffd5b5f5f60408385031215611b6a575f5ffd5b823591506020830135611b7c81611b4c565b809150509250929050565b5f5f5f5f60808587031215611b9a575f5ffd5b8435611ba581611b13565b966020860135965060408601359560600135945092505050565b5f5f5f60608486031215611bd1575f5ffd5b833592506020840135611be381611b4c565b929592945050506040919091013590565b634e487b7160e01b5f52602160045260245ffd5b6001600160a01b038816815260208101879052604081018690526060810185905260e0810160058510611c4957634e487b7160e01b5f52602160045260245ffd5b8460808301528360a08301528260c083015298975050505050505050565b5f5f5f60608486031215611c79575f5ffd5b505081359360208301359350604090920135919050565b8082028115828204841417611af657611af6611acf565b5f82611cc157634e487b7160e01b5f52601260045260245ffd5b500490565b81810381811115611af657611af6611acf565b60208082526017908201527f556e617574686f72697a65643a206e6f742061646d696e000000000000000000604082015260600190565b6020808252600d908201526c496e76616c696420737461746560981b604082015260600190565b5f60208284031215611d47575f5ffd5b8151611b4581611b4c565b5f60018201611d6357611d63611acf565b506001019056fea2646970667358221220103cd16e90d39bb916cfe34cd0866009f91243170c54f6219e48e18ee0fe692e64736f6c634300081c0033",
  "linkReferences": {},
  "deployedLinkReferences": {},
  "immutableReferences": {},
  "inputSourceName": "project/contracts/LoanSystemMVP.sol",
  "buildInfoId": "solc-0_8_28-810287cf4c3434b511fbc59dd9e447bbefac30f6"
}