{
  "_format": "hh3-artifact-1",
  "contractName": "CreditTrustToken",
  "sourceName": "contracts/CreditTrustToken.sol",
  "abi": [
    {
      "inputs": [
        {
          "internalType": "address",
          "name": "_admin",
          "type": "address"
        }
      ],
      "stateMutability": "nonpayable",
      "type": "constructor"
    },
    {
      "anonymous": false,
      "inputs": [
        {
          "indexed": true,
          "internalType": "address",
          "name": "user",
          "type": "address"
        },
        {
          "indexed": false,
          "internalType": "uint256",
          "name": "amount",
          "type": "uint256"
        },
        {
          "indexed": false,
          "internalType": "int256",
          "name": "newBalance",
          "type": "int256"
        }
      ],
      "name": "Burned",
      "type": "event"
    },
    {
      "anonymous": false,
      "inputs": [
        {
          "indexed": true,
          "internalType": "address",
          "name": "user",
          "type": "address"
        },
        {
          "indexed": false,
          "internalType": "uint256",
          "name": "amount",
          "type": "uint256"
        },
        {
          "indexed": false,
          "internalType": "int256",
          "name": "newBalance",
          "type": "int256"
        }
      ],
      "name": "Minted",
      "type": "event"
    },
    {
      "anonymous": false,
      "inputs": [
        {
          "indexed": true,
          "internalType": "address",
          "name": "user",
          "type": "address"
        },
        {
          "indexed": false,
          "internalType": "int256",
          "name": "initialTrustScore",
          "type": "int256"
        }
      ],
      "name": "UserInitialized",
      "type": "event"
    },
    {
      "inputs": [],
      "name": "admin",
      "outputs": [
        {
          "internalType": "address",
          "name": "",
          "type": "address"
        }
      ],
      "stateMutability": "view",
      "type": "function"
    },
    {
      "inputs": [
        {
          "internalType": "address",
          "name": "user",
          "type": "address"
        },
        {
          "internalType": "uint256",
          "name": "amount",
          "type": "uint256"
        }
      ],
      "name": "burn",
      "outputs": [],
      "stateMutability": "nonpayable",
      "type": "function"
    },
    {
      "inputs": [
        {
          "internalType": "address",
          "name": "user",
          "type": "address"
        },
        {
          "internalType": "uint256",
          "name": "initialTrustScore",
          "type": "uint256"
        }
      ],
      "name": "initializeUser",
      "outputs": [],
      "stateMutability": "nonpayable",
      "type": "function"
    },
    {
      "inputs": [
        {
          "internalType": "address",
          "name": "",
          "type": "address"
        }
      ],
      "name": "isInitialized",
      "outputs": [
        {
          "internalType": "bool",
          "name": "",
          "type": "bool"
        }
      ],
      "stateMutability": "view",
      "type": "function"
    },
    {
      "inputs": [],
      "name": "loanSystem",
      "outputs": [
        {
          "internalType": "address",
          "name": "",
          "type": "address"
        }
      ],
      "stateMutability": "view",
      "type": "function"
    },
    {
      "inputs": [
        {
          "internalType": "address",
          "name": "user",
          "type": "address"
        },
        {
          "internalType": "uint256",
          "name": "amount",
          "type": "uint256"
        }
      ],
      "name": "mint",
      "outputs": [],
      "stateMutability": "nonpayable",
      "type": "function"
    },
    {
      "inputs": [
        {
          "internalType": "address",
          "name": "newAdmin",
          "type": "address"
        }
      ],
      "name": "setAdmin",
      "outputs": [],
      "stateMutability": "nonpayable",
      "type": "function"
    },
    {
      "inputs": [
        {
          "internalType": "address",
          "name": "_loanSystem",
          "type": "address"
        }
      ],
      "name": "setLoanSystem",
      "outputs": [],
      "stateMutability": "nonpayable",
      "type": "function"
    },
    {
      "inputs": [
        {
          "internalType": "address",
          "name": "",
          "type": "address"
        }
      ],
      "name": "tokenBalance",
      "outputs": [
        {
          "internalType": "int256",
          "name": "",
          "type": "int256"
        }
      ],
      "stateMutability": "view",
      "type": "function"
    }
  ],
  "bytecode": "0x6080604052348015600e575f5ffd5b506040516109ac3803806109ac833981016040819052602b9160a8565b6001600160a01b03811660845760405162461bcd60e51b815260206004820152601460248201527f41646d696e2063616e6e6f74206265207a65726f000000000000000000000000604482015260640160405180910390fd5b600280546001600160a01b0319166001600160a01b039290921691909117905560d3565b5f6020828403121560b7575f5ffd5b81516001600160a01b038116811460cc575f5ffd5b9392505050565b6108cc806100e05f395ff3fe608060405234801561000f575f5ffd5b5060043610610090575f3560e01c8063c7b114c211610063578063c7b114c2146100e2578063d60b347f14610112578063e6bc59ca14610144578063eedc966a14610157578063f851a44014610184575f5ffd5b806340c10f19146100945780634f34e8f3146100a9578063704b6c02146100bc5780639dc29fac146100cf575b5f5ffd5b6100a76100a2366004610781565b610197565b005b6100a76100b73660046107a9565b610313565b6100a76100ca3660046107a9565b6103e5565b6100a76100dd366004610781565b610490565b6003546100f5906001600160a01b031681565b6040516001600160a01b0390911681526020015b60405180910390f35b6101346101203660046107a9565b60016020525f908152604090205460ff1681565b6040519015158152602001610109565b6100a7610152366004610781565b6105fa565b6101766101653660046107a9565b5f6020819052908152604090205481565b604051908152602001610109565b6002546100f5906001600160a01b031681565b6002546001600160a01b03163314806101ba57506003546001600160a01b031633145b6101df5760405162461bcd60e51b81526004016101d6906107c9565b60405180910390fd5b6001600160a01b0382166102055760405162461bcd60e51b81526004016101d69061080f565b5f81116102495760405162461bcd60e51b81526020600482015260126024820152710416d6f756e74206d757374206265203e20360741b60448201526064016101d6565b6001600160ff1b038111156102935760405162461bcd60e51b815260206004820152601060248201526f416d6f756e7420746f6f206c6172676560801b60448201526064016101d6565b6001600160a01b0382165f908152602081905260408120546102b6908390610849565b6001600160a01b0384165f8181526020818152604091829020849055815186815290810184905292935090917fa08d6edb5f88a0d9a6b60659504444f73ecdbeed019a77a0ec8d9d75a1268d6391015b60405180910390a2505050565b6002546001600160a01b0316331461036d5760405162461bcd60e51b815260206004820152601760248201527f556e617574686f72697a65643a206e6f742061646d696e00000000000000000060448201526064016101d6565b6001600160a01b0381166103c35760405162461bcd60e51b815260206004820152601960248201527f4c6f616e53797374656d2063616e6e6f74206265207a65726f0000000000000060448201526064016101d6565b600380546001600160a01b0319166001600160a01b0392909216919091179055565b6002546001600160a01b031633148061040857506003546001600160a01b031633145b6104245760405162461bcd60e51b81526004016101d6906107c9565b6001600160a01b03811661046e5760405162461bcd60e51b815260206004820152601160248201527024b73b30b634b2103732bb9030b236b4b760791b60448201526064016101d6565b600280546001600160a01b0319166001600160a01b0392909216919091179055565b6002546001600160a01b03163314806104b357506003546001600160a01b031633145b6104cf5760405162461bcd60e51b81526004016101d6906107c9565b6001600160a01b0382166104f55760405162461bcd60e51b81526004016101d69061080f565b5f81116105395760405162461bcd60e51b81526020600482015260126024820152710416d6f756e74206d757374206265203e20360741b60448201526064016101d6565b6001600160ff1b038111156105835760405162461bcd60e51b815260206004820152601060248201526f416d6f756e7420746f6f206c6172676560801b60448201526064016101d6565b6001600160a01b0382165f908152602081905260408120546105a6908390610870565b6001600160a01b0384165f8181526020818152604091829020849055815186815290810184905292935090917f06871ec5615772fa1a8b9e55903e2ff7629a1e7340775cf8432b6b5f49b38d0b9101610306565b6002546001600160a01b031633148061061d57506003546001600160a01b031633145b6106395760405162461bcd60e51b81526004016101d6906107c9565b6001600160a01b03821661065f5760405162461bcd60e51b81526004016101d69061080f565b6001600160a01b0382165f9081526001602052604090205460ff16156106bd5760405162461bcd60e51b8152602060048201526013602482015272105b1c9958591e481a5b9a5d1a585b1a5e9959606a1b60448201526064016101d6565b6001600160ff1b038111156107065760405162461bcd60e51b815260206004820152600f60248201526e53636f726520746f6f206c6172676560881b60448201526064016101d6565b6001600160a01b0382165f81815260208181526040808320859055600180835292819020805460ff191690931790925590518381528392917f913b48e3778c5d1f5be5d74351a14156230f41857c1481ac3ee1aa5993b351179101610306565b80356001600160a01b038116811461077c575f5ffd5b919050565b5f5f60408385031215610792575f5ffd5b61079b83610766565b946020939093013593505050565b5f602082840312156107b9575f5ffd5b6107c282610766565b9392505050565b60208082526026908201527f556e617574686f72697a65643a206e6f742061646d696e206f72206c6f616e2060408201526573797374656d60d01b606082015260800190565b6020808252600c908201526b24b73b30b634b2103ab9b2b960a11b604082015260600190565b634e487b7160e01b5f52601160045260245ffd5b8082018281125f83128015821682158216171561086857610868610835565b505092915050565b8181035f83128015838313168383128216171561088f5761088f610835565b509291505056fea26469706673582212201d77d61c1ba12912f6558cf605755a8657f74c15c0da58b62fd7ff7e0119c67364736f6c634300081c0033",
  "linkReferences": {},
  "deployedLinkReferences": {},
  "immutableReferences": {},
  "inputSourceName": "project/contracts/CreditTrustToken.sol",
  "buildInfoId": "solc-0_8_28-34b08581b7c7ad3a38fd66b2c1f4b8efba41e1c2"
}